:02000004080EE4
:10000000601F002029370E0871370E08ED300E08EA
:1000100075370E0879370E087D370E08000000008E
:1000200000000000000000000000000081370E0802
:1000300085370E080000000089370E08EF300E08E3
:100040008D370E0891370E0895370E0899370E0830
:100050009D370E08A1370E08A5370E08A9370E08E0
:10006000AD370E08B1370E08B5370E08B9370E0890
:10007000BD370E08C1370E08C5370E08C9370E0840
:10008000CD370E08D1370E08D5370E08D9370E08F0
:10009000DD370E08E1370E08E5370E08E9370E08A0
:1000A000ED370E08F1370E08F5370E08F9370E0850
:1000B00069310E0879310E08FD370E0801380E0837
:1000C00005380E0809380E080D380E0811380E08CC
:1000D00015380E0819380E0893310E081D380E0811
:1000E00021380E0825380E0829380E082D380E083C
:1000F00031380E0835380E0839380E083D380E08EC
:1001000041380E0845380E0803320E0849380E08EB
:100110004D380E0851380E0855380E0859380E085B
:100120005D380E0861380E0865380E0869380E080B
:100130006D380E08000000000000000071380E0845
:1001400075380E0879380E087D380E0881380E088B
:1001500085380E0889380E088D380E0891380E083B
:1001600095380E0899380E089D380E08A1380E08EB
:10017000A5380E08A9380E08000000000000000095
:10018000AD380E08B1380E08F0B581B00C462DED33
:10019000028B8CB02C22684600F028FC2CB90CB0E5
:1001A0000320BDEC028B01B0F0BDDFF81458286DC0
:1001B000C0F3C00028B90CB00620BDEC028B01B022
:1001C000F0BD9DED098A9FED600AB4EE408AF1EE24
:1001D00010FA14D4696E089E8E4210D0DFF8E477CE
:1001E0003A691068C0F3803010B9206A884206DB93
:1001F0001068C0F3403040B9206A814205DA0CB083
:100200000420BDEC028B01B0F0BDBDF81E0008B1AA
:1002100000F080FB9DED010AB5EE400AF1EE10FA08
:1002200018BF85ED050A9DED040AB5EE400AF1EE12
:1002300010FA18BF85ED080A9DED000AB5EE400AD8
:10024000F1EE10FA1CBF009828619DED030AB5EE8F
:10025000400AF1EE10FA18BF85ED070A9DED020A7B
:10026000B5EE400AF1EE10FA18BF85ED060A9DEDD5
:10027000050AB5EE400AF1EE10FA18BF85ED090A3D
:10028000BDF81C0000B1A885BDF81A0000B1688552
:100290007869BDF81810026861F343020260002219
:1002A0000068296AC5F89010C0F342002885C5F897
:1002B000A02085ED258A6E6685ED178A6869696AD2
:1002C000C5F88C00C5F888100020C5F89C00DFF840
:1002D000F816A869C5F89800A86840F00200A86060
:1002E000EA67286D20F0080028650868026842F077
:1002F000010202600CB00020BDEC028B01B0F0BD29
:10030000DFF8BC26DFF8C00600680168D2ED100AED
:10031000036880EE800ABFEE001A30EE011A5B0817
:10032000BCEEC11A5B0011EE102A0360C26201F03C
:100330000101436A934224BF521E4262026861F384
:100340000002026000207047CDCCCC3D30B4DFF815
:100350007016DFF87826086D40F48050086500209C
:1003600012685062136843F001031360086E4B6E0D
:10037000C31ADFF854068B66002B006861DDDFF8D6
:1003800044365B691C6824F020041C600B6E5B1E05
:10039000BFEE001A0B66036891ED100AD1ED260A34
:1003A0000568C0EE200A30EE811A6D08BCEEC11A55
:1003B0006D0011EE104A0560C46203F00103456A46
:1003C000A54224BF641E4462046863F30004046011
:1003D000DFF8FC0503681C68640864001C60D1F841
:1003E0008000DFF8E045401CC1F8800060690568C6
:1003F0006D086D0005600024888DA1F8A6005C6280
:10040000186840F0010018608B6ED1F8A000002B36
:1004100048BF5B421B1A002B2BDC91ED220AD1ED69
:10042000240A70EE600A91ED090AC1ED220AF4EE89
:10043000400AF1EE10FAC1ED260A69D581ED220AD3
:1004400066E009D5DFF87C355B691C6844F0200460
:100450001C600B6E5B1C9BE703685B085B00036022
:1004600056E000BF30EE200A401C81ED220AC1F8A0
:10047000A00091ED261A91ED220AB4EE410AF1EEA8
:1004800010FA2CD5D1ED240AF5EE400AF1EE10FA5F
:1004900025DDD1F8A00030EE200AB4EE410A401C60
:1004A000F1EE10FA81ED220AC1F8A00017D530EE66
:1004B000200AB4EE410A401CF1EE10FA81ED220A46
:1004C000C1F8A0000BD530EE200AB4EE410A401C62
:1004D000F1EE10FA81ED220AC1F8A000C2D491ED2C
:1004E000250AB4EE401AF1EE10FA11D5D1ED230A27
:1004F00071EE200AB4EE600AC1ED260AF1EE10FAA0
:1005000048BF81ED260AD1F89C00401CC1F89C0030
:100510001068400840001060D1F8AC30506A834247
:100520003CBF526AC1F8AC2030BC704730B5DFF830
:100530009404DFF88C444169626D81B00B685B09FB
:1005400022F0080203F0010342EAC30262650A686E
:10055000636D520862F3061363650A68636D02F007
:10056000010282F0010262F3820363650968626D31
:10057000090901F0010181F0010161F3C71262650F
:1005800000690168626D890B01F0010181F00101D0
:1005900061F3410262650068616D226E400B00F0FC
:1005A000010080F0010060F300016165616E8A4224
:1005B00008D1DFF814040368186800F0010080F027
:1005C000010000E00020236D60F3C3032365636D29
:1005D000C3F3400010B19142B8BF6266D80703D59B
:1005E000616E8A42B8BF6266A068C0F3400000280E
:1005F0001EBF206DC0F3C000002826D0A068DFF821
:10060000D45320F00200A06044F288513822ADF8A3
:100610000010ADF8022005F12C0006220FF2C431C3
:1006200000F054FA0422694605F12C0000F04EFA5D
:10063000382204F1500105F12C0000F047FA0222A3
:1006400084A105F12C0000F041FAA068C1072AD569
:10065000206DC0F3C00030B3A068DFF878534008C5
:100660004000A06044F289513822ADF80010ADF886
:10067000022005F12C0006220FF2683100F026FA64
:100680000422694605F12C0000F020FA382204F11A
:10069000500105F12C0000F019FA02226DA105F1BC
:1006A0002C0000F013FA01B030BD000030B5DFF8C7
:1006B000104385B0206DC0F3C01010B1062005B006
:1006C00030BD206DC0F3C000002877D114226846E9
:1006D00000F08CF9DFF8F0522868016849084900F9
:1006E000016000209DED012AD4ED240A94ED260A34
:1006F00094ED091AB5EE402AF1EE10FA18BFF0EEAB
:10070000420A9DED022AB5EE402AF0EE401AF1EEC3
:1007100010FA1CBFB0EE420AF0EE401A9DED032A1B
:10072000B5EE402AF1EE10FA18BFB0EE421AB4EE60
:10073000611AF1EE10FA1FD571EEE01A401CB4EE0A
:10074000611AF1EE10FA41BF71EEE01A401CB4EEEE
:10075000611AF1EE10FA0FD571EEE01A401CB4EEFA
:10076000611AF1EE10FA41BF71EEE01A401CB4EECE
:10077000611AF1EE10FADFD4216E626E8A1A48BF58
:10078000411802D4002A01DD091A6166C4F8A000EC
:1007900084ED220A0020C4F89C00C4ED240AFFF76F
:1007A000AFFDA06840F00100A060206D40F48030F3
:1007B00020652868016841F001010160002005B052
:1007C00030BD7F49086DC0F3C00008B906207047EE
:1007D000002008664866C1F88000C1F88400C86738
:1007E0007047C1B1486818B101280BD00320704789
:1007F00009687348026D01F0600122EA0101016598
:100800000020704709686E48026D01F060011143D5
:10081000016500207047032070470878C2070DD596
:10082000487830B1012809D16B48016841F02001B6
:1008300003E06948016821F0200101600020704751
:1008400009B9032070475E4A0868D3680343D36040
:10085000002070470D0A000000B581B011B90320D7
:1008600001B000BD20225D4800F0C0F8002001B0BA
:1008700000BD09B90320704700207047504A106D31
:10088000C0F3C00008B10620704709B903207047C3
:10089000086818B900215167D06670470820704772
:1008A000474A106DC0F3C01038B9106DC0F3C000D6
:1008B00018B1106DC0F3401008B106207047D16E1A
:1008C00031B940480369D3F800C0CCF3803020B977
:1008D000506F10B1491C814201D3042070470020A1
:1008E0007047394936480A683649936A5B1CC363C6
:1008F00049690A6842F001020A600B6843F00E037E
:100900000B600A6842F010020A60016D41F4006158
:100910000165704701462A4A92F8A930C02082F842
:10092000A80003F01F0343F0400382F8A9304FF002
:10093000000C2B480368C3F814C0C3F818C0D3F8E0
:1009400000C04CF0010CC3F800C0186840F480707F
:10095000186058695FEAC07CFBD55869D3F818C0A5
:1009600092F8A80018615869C0F340000028FAD036
:100970005869D3F818C092F8A90018615869C0F3F3
:10098000C0100028FAD04FEA011C1FFA8CFC4FEA75
:100990001C2018615869C0F3C0100028FAD00CF070
:1009A000F00CC3F810C05869C0F3C0100028FAD08A
:1009B000186820F480701860D1850020704700000E
:1009C0003C000020EC000020280100203401002021
:1009D0002C0100205C010020140002404C0000208B
:1009E00020010020235245533A3A000062B38B079E
:1009F00008D0521E11F8013B00F8013B00F02480A2
:100A00008B07F6D1830740F0208000BF103A07D350
:100A100030B4B1E83810103AA0E83810F9D230BC40
:100A2000530724BFB1E80810A0E8081044BF51F8EC
:100A3000043B40F8043BD20724BF31F8022B20F8D6
:100A4000022B44BF0B7803707047121F17D35B0053
:100A500009D151F8043B20F8023B1B0C121F20F86F
:100A6000023BF6D20BE051F8043B00F8013B1B0AB5
:100A700020F8023B1B0C121F00F8013BF3D238BFD9
:100A8000121D521E24BF11F8013B00F8013BF8D89B
:100A9000704730B4002513E050F8042BD30744BF4F
:100AA000A9F101039A18091F042942F8045BFAD23C
:100AB00013468C0744BF15809B1CC90748BF1D7097
:100AC00050F8041B0029E7D130BC704703461000E2
:100AD00000D1704770B412F003000DD011F8014B33
:100AE0009D68DE89AC55DC89641CDC81DC89DD8A8B
:100AF0002C40401EDC81F1D1920831D0D8899C680D
:100B000011F8015B2554D889401CD881D889DC8A2A
:100B10002040D881D8899D6811F8014B2C54D88980
:100B2000401CD881D889DC8A2040D881DC899D6826
:100B300011F8010B2855D889401CD881D889DC8A46
:100B40002040D881D8899D6811F8014B2C54D88950
:100B5000401CD881D889DC8A2040521ED881CDD152
:100B600070BC704710B5040001D1012010BD94F88D
:100B7000390028B9002184F83810204600F02DFBF8
:100B8000022084F83900211D206800F060F901205E
:100B900084F83900002010BD10B5040001D10120F7
:100BA00010BD94F8390028B9002184F83810204687
:100BB00000F086FB022084F83900211D206800F037
:100BC00046F9012084F83900002010BD30B50446F4
:100BD00081B094F8380001280D4608BF022068D083
:100BE000012084F8380002210C2A84F8391059D8E1
:100BF000DFE802F0075858581B58585830585858D2
:100C000044002068294600F0ABF92068816941F072
:100C1000080181612068816921F0040181612168F6
:100C20008A69286902438A613CE02068294600F00D
:100C30005AF92068816941F4006181612068816905
:100C400021F480618161206881692A6941EA022179
:100C5000816127E02068294600F0ABF92068C1696E
:100C600041F00801C1612068C16921F00401C1613E
:100C70002168CA6928690243CA6113E020682946CD
:100C800000F0C3F92068C16941F40061C1612068C6
:100C9000C16921F48061C1612068C1692A6941EAA2
:100CA0000221C161012084F83900002184F8381044
:100CB000002001B030BD70B490F83820012A08BF80
:100CC000022000F0C180012280F83820022380F841
:100CD0003930DFF8802303689C6814409C600B68FF
:100CE000002B00F08E80102B00F09280202B00F063
:100CF0009680302B00F09A80402B68D0502B31D05A
:100D0000602B49D0702B0BD0B3F5805F03D0B3F5C7
:100D1000005F16D091E001688A68D208D2008BE0AB
:100D2000CA684B6804688968A56825F47F4529432B
:100D30000B4343EA0223A36001688A6842F077020A
:100D40007AE0CA684B6804688968A56825F47F451D
:100D500029430B4343EA0223A36001688A6842F4F3
:100D6000804269E0CA684B68016818318C688D68F8
:100D70006D086D008D6024F00A040E6826F0F00600
:100D800046EA02160E6023438B6001688A6822F0EF
:100D9000700242F057024FE0CA684B680168183190
:100DA0008C6824F010048C600C688D6824F4704406
:100DB00044EA023425F0A0050C6045EA03158D6075
:100DC00001688A6822F0700242F0670234E0CA6863
:100DD0004B68016818318C688D686D086D008D60F6
:100DE00024F00A040E6826F0F00646EA02160E60A9
:100DF00023438B6001688A6822F0700242F0470248
:100E00001AE001688A6822F0700242F0070213E0DB
:100E100001688A6822F0700242F017020CE0016853
:100E20008A6822F0700242F0270205E001688A68B1
:100E300022F0700242F037028A60012180F83910F6
:100E4000002280F83820002070BC7047000030B4C9
:100E5000814B0468984218BFB0F1804F0BD07F4A95
:100E600090421CBF7E4DA84205D07E4A90421CBFD6
:100E70007D4DA84210D14A6824F070041443984272
:100E800018BFB0F1804F1BD0744A90421FBF744D01
:100E9000A842744A904213D0734DA8421CBF734AB3
:100EA00090420DD0724DA8421CBF724A904207D0AA
:100EB000714DA8421FBF714A9042714DA84203D1A3
:100EC000CA6824F440741443046098428C68C46275
:100ED0000A68826219BF644B984209690163012262
:100EE000426130BC704770B4026A5B4E22F010025F
:100EF0000262B042056A436884690A6824F4E644E1
:100F000044EA02248A6825F0200545EA02151CBF40
:100F1000554A90420DD1CA684E6925F0800545EAD0
:100F200002158A6923F44063164325F0400543EA1D
:100F300086034360846149688163056270BC7047C1
:100F40000000036A4FF0010C0CFA01FC23EA0C03C9
:100F5000036202FA01F1036A19430162704700005B
:100F6000F0B4026A520852000262066A4468856957
:100F70000B688A6825F073051D4326F002061643A8
:100F8000354B98421CBF384FB8420BD1CA684B69E9
:100F900026F0080624F4407416438A691C4326F0A0
:100FA0000406144344608561496841630662F0BCED
:100FB000704770B4026A22F480720262056A436864
:100FC000C4690A688E6824F07304144325F400751C
:100FD000214A45EA062590421CBF234EB0420DD15E
:100FE000CA684E6925F4006545EA02258A6923F43A
:100FF0004053164325F4806543EA06134360C461F9
:101000004968C163056270BC704770B4026A124ED1
:1010100022F480520262B042046A4268C3690D68D9
:1010200023F4E64343EA05238D6824F4005444EA9C
:1010300005341CBF0C4DA84204D14D6922F48042F6
:1010400042EA85124260C36149680164046270BC6F
:10105000704700008800FFFF0000014000040040CE
:1010600000080040000C0040000401400040014026
:10107000004401400048014000180040001C0040AE
:1010800000200040002110B5844C61604FF080408A
:10109000206000228249A260E160226186B0204681
:1010A000FFF760FD18B140217E4800F0E5F94FF4EC
:1010B0008050029002A92046FFF7FDFD18B146219D
:1010C000784800F0D9F92021009100220192694668
:1010D000204600F0D3F918B14D21724800F0CCF948
:1010E00006B010BD704830B5704C6E4D2060532175
:1010F00063200022E0606160A26022618DB0204622
:10110000FFF730FD18B15F21284600F0B5F94FF424
:101110008050099009A92046FFF7CDFD18B165213F
:10112000284600F0A9F92046FFF736FD18B16A21DC
:10113000284600F0A1F92021009100220192694681
:10114000204600F09BF918B17121284600F094F96F
:101150006021029109220392022104910022069249
:1011600002A92046FFF732FD18B17A21284600F087
:1011700083F9204600F07CF80DB030BD002110B599
:101180004B4C4C486160206000224549A260E16000
:10119000226186B02046FFF7E5FC18B18D21414859
:1011A00000F06AF94FF48050029002A92046FFF740
:1011B00082FD18B193213B4800F05EF92021009197
:1011C000002201926946204600F058F918B19A2190
:1011D000344800F051F906B010BD00B581B0006888
:1011E000B0F1804F12D100200090002232480168F7
:1011F00041F0010101600321006800F0010000904E
:1012000000981C2000F073F91C202AE0264988422F
:1012100012D10020009000222748016841F002010D
:1012200001600521006800F00200009000981D2078
:1012300000F05DF91D2014E01E49884216D10020FF
:10124000009000221C48016841F00801016004215F
:10125000006800F0080000900098322000F047F984
:10126000322001B05DF804EB00F06EB901B000BDB2
:1012700000680D49884200D0704700B585B0402213
:101280000092022100220292039201910222049212
:1012900069460A4800F090F905B000BDA00E002094
:1012A0003F420F00B4350E0800040040DC0E002061
:1012B000180F0020000C0040403802400008024097
:1012C0007047000070B55F485F4C604D604E00F0A5
:1012D00028FB604800F0B6FA00F07CFB00F05CF8F8
:1012E00000F094FB00F040FC00F08AFCFFF746FFA2
:1012F000FFF7C8FEFFF7F6FE00F0D4FC00F0FBFCA1
:10130000FFF7EFFA544841680A68C36819684269F0
:101310001368C069514A01681068C16841F0010151
:10132000C160012200214E48FFF70BFE4D480068C6
:10133000C16841F00201C16002684B4942F00802F5
:101340000260206D00680868416980694FF4C870C8
:10135000FFF7E0FAFFF7EAF800F0BCFC3078C107CD
:101360000DD500F0FE003070286D40F480502865E7
:10137000206DC168C1F3C01008B900F0DBFA307805
:10138000C0F380010029E5D000F0FB003070286D2B
:1013900040F400502865DDE700B593B000200090D0
:1013A0004FF480333148016841F0805101600021E1
:1013B000006800F08050009000982D48009102686D
:1013C00042F4804202600122006800F480400090F4
:1013D00006A80099069202214FF480020C910D920A
:1013E0000821A8220E910F92022104220793109146
:1013F000119200F0B5FC00B1FEE70221029100223B
:1014000003920F204FF4A051019004914FF48052A9
:101410000592052101A800F033FE00B1FEE700F0BF
:10142000BCFE144AA0FB0221480A00F096F80420F2
:1014300000F0A4F8002202214FF0FF3000F057F82E
:1014400013B000BD00000E085C0100203C0000202D
:10145000540F0020C5120E08EC00002028010020C7
:10146000000400402C0100202001002040380240F0
:1014700000700040986E1283FEE7000090F838205C
:10148000012A01D102207047012280F8382002236E
:1014900080F839300268536823F0700353600368A2
:1014A000D3F804C00A6842EA0C0CC3F804C002680E
:1014B000936823F0800393600268936849680B4344
:1014C0009360012280F83920002180F83810002034
:1014D00070470000304B19684FF6FF0200021140C0
:1014E00000F4E06008432D4908431860704730B4A9
:1014F000294B1C68C4F30223C3F10705052D28BF3F
:101500000F2405D20125C3F1070405FA04F4641E73
:101510001D1D072D34BF0023DB1E214099400124EF
:1015200004FA03F35B1E1A4011430901020007D5B8
:101530001B4A00F00F00104400F8041C30BC704738
:10154000184B195430BC7047012200F01F01164B94
:101550008A40400943F820207047401EB0F1807F48
:1015600001D30120704711494860F02081F8130D24
:1015700000228A60072008600020704704280B4979
:1015800004D1086840F00400086070470A6822F03F
:1015900004020A60704700000CED00E00000FA054C
:1015A00018ED00E000E400E000E100E010E000E001
:1015B00000F000B8704700002DE9F04F03460C46DC
:1015C0004FF0000881B0C146C246674867490F2204
:1015D000012505FA08FC25680CEA050EE64540F0F1
:1015E000B1806568022D18BF122D10D14FEAD805C1
:1015F00003EB85050AF01C062F6A02FA06FB27EAB0
:101600000B07D4F810B00BFA06F63E432E62032502
:101610001E68277905FA09F5ED4307F003072E4008
:1016200007FA09F73E431E606668012E18BF022EB6
:1016300003D0112E18BF122E10D19E68E7682E40DD
:1016400007FA09F73E439E605E6826EA0C07666863
:10165000C6F3001606FA08F63E435E60DE683540C3
:10166000A66806FA09F63543DD606568EE0069D5BF
:10167000002500954FEA980C0E6846F480460E60EF
:101680000D683B4E05F480450095009D56F82C7082
:101690000AF00C0502FA05F627EA0606354FBB42AA
:1016A00008BF002722D0344FBB4208BF01271DD0FE
:1016B000324FBB4208BF022718D0314FBB4208BF90
:1016C000032713D02F4FBB4208BF04270ED02E4F45
:1016D000BB4208BF052709D02C4FBB4208BF0627D5
:1016E00004D02B4FBB420CBF0727082707FA05F58C
:1016F00035431F4E46F82C506FEA0E0C056866689D
:101700000CEA0505F70348BF4EEA05050560456884
:1017100066680CEA0505B70348BF4EEA0505456053
:10172000856866680CEA0505F70248BF4EEA0505BC
:101730008560C56866680CEA0505B60248BF4EEAD2
:101740000505C56008F10108B8F10F0F0AF1040A98
:1017500009F102097FF63CAF01B0BDE8F08F00004F
:1017600002B9090481617047003C014044380240DD
:101770000838014000000240000402400008024016
:10178000000C024000100240001402400018024009
:10179000001C024030B40868864B984204D38C8801
:1017A0002518B5F1016F02D330BC08207047083A04
:1017B000A24238BF032005D3224630BC642308313F
:1017C00000F0B4BD30BC704770B50D460446002033
:1017D000A168088240F20121AA888A4204DA2868B6
:1017E0008118B1F1016F01D3082070BD724E3146EE
:1017F00000F0FFFDA068C660A068A98801820020F3
:1018000070BD08686B4A904201D208207047496851
:10181000814224BF4FF4FA6200F006BD09207047F0
:101820000878401E8041C043C00F00F044BE6348AA
:10183000018CCA0701D40420704741F004010184DF
:101840000020704730B55D4C5A4881B010222146C7
:1018500000F0CFFD6168206800F002FEE189228C73
:1018600025686084884214BF102100214FF6EF7074
:10187000024011432184216860682268238CA161A1
:10188000E0614FF6BF704E498A4214BF40220022E9
:1018900003401A43228415F1010F0CBF20230023BB
:1018A0004FF6DF7002401A432284C2F3001010B1D9
:1018B0000B2001B030BD8D4214BF0C20002001B0C0
:1018C00030BD3E48018C41F0020101840020704788
:1018D0003A4810B5018CCA0784B048BF04201ED412
:1018E00041F008010184002000F0E5FD314C102298
:1018F0006946204600F07DFDBDF80C00314940F0FE
:101900000100ADF80C004FF47A72204600F08CFC18
:10191000642310226946204600F008FD002004B030
:1019200010BD012181F31088274A1060002080F348
:101930001088704721490A8CC2F3400080B14FF6ED
:10194000FD7002400A84BFF34F8F204920480A6887
:1019500002F4E06202430A60BFF34F8F00BFFDE76D
:10196000C2F3C00080B14FF6F77002400A84BFF3A3
:101970004F8F164916480A6802F4E06202430A6073
:10198000BFF34F8F00BFFDE7C2F3800080B14FF679
:10199000FB7002400A84BFF34F8F0C490C480A6861
:1019A00002F4E06202430A60BFF34F8F00BFFDE71D
:1019B00070470000004000080C0A002000000020D2
:1019C00000000E080140000808ED00E00CED00E00A
:1019D0000400FA0500B50C4881B0016841F40071BB
:1019E0000160026842F480620260016841F4807123
:1019F00001600320FFF76EFD022000F085FD00F07E
:101A0000A7FD002001B000BD003C0240F0B587B04A
:101A10000020059040F23F774E484F4C01684F4DF3
:101A20004F4E41F004010160026802F00402059289
:101A3000002205990592036843F080030360016862
:101A400001F08001059105990592036843F00103B7
:101A50000360016801F00101059105990592036891
:101A600043F002030360016801F00201059105994A
:101A700005923946036843F008030360006800F0EC
:101A8000080005902046059BFFF76AFE00222021F2
:101A90002846FFF765FE00224FF481513046FFF7DC
:101AA0005FFE4FF4F1400021009001910291204629
:101AB0006946FFF781FD0121019100220292039204
:101AC000009769462046FFF777FD40F2C17000217C
:101AD00000900191029128466946FFF76DFD202193
:101AE000009101220021029103910192694628464A
:101AF000FFF762FD04200021009001910291304621
:101B00006946FFF759FD4FF48151009101220021F0
:101B100002910391019269463046FFF74DFD022183
:101B20000191002202924FF4604003210090039142
:101B30000522049269463046FFF73EFD042000214D
:101B400000900191029169460648FFF735FD07B004
:101B5000F0BD00BF303802400008024000000240E3
:101B600000040240000C02401F4A2048204900B5F2
:101B7000426000234FF4804201608360C3600261D1
:101B800043618361C361036281B000F02DFD30B118
:101B900001B05DF804EB42211648FFF76DBC01B0BF
:101BA00000BD00681249884200D0704700B587B078
:101BB000C022019212210291012203920321049179
:101BC0000422059201A90C48FFF7F6FC00210B48FE
:101BD0000091026842F400120260006800F40010F4
:101BE0000090009807B000BDA08601000C0E0020F8
:101BF000005400405C350E080004024040380240AA
:101C00002348244900B501604FF4E12200230C2150
:101C100042608360C360036141618361C36181B0DD
:101C200000F056FD30B101B05DF804EB42211A48D6
:101C3000FFF722BC01B000BD00681649884200D001
:101C4000704700B587B00022144800920222016854
:101C500041F4003101600C21006800F40030009074
:101C600000980F480191029201210391032207215C
:101C70000591049201A9FFF79FFC00220021262074
:101C8000FFF735FC2620FFF75FFC07B000BD000022
:101C9000600E0020004400400C360E084038024020
:101CA000000002400A4801680969416809698168C1
:101CB0000969C16809690169096941690969816935
:101CC0000969C1690969016A0969406A006970475F
:101CD0002401002010B5204C211D204600F054FEA8
:101CE000216D0868C0F3C00020B10868086820F0C2
:101CF0000800086010BD1848011D00F12C02C164E5
:101D00008262006D154AC16841F00401C160C1687A
:101D100041F02001C160D1680B6823F020030B6003
:101D2000C16841F00801C160C16821F04001C16093
:101D3000C16821F08001C16070470848C06801682F
:101D400041F0200101600448006DC16841F080014C
:101D5000C1600120704700005C010020EC00002001
:101D60002DE9F041040082B016D02078C14EC107A1
:101D700051D5B06800F00C00042807D0B06800F01E
:101D80000C0008280CD17068410209D53068810325
:101D900041D5606800283ED1012002B0BDE8F08145
:101DA0006068B0F5803F04D1306840F48030306026
:101DB00011E0B0F5A02F306806D140F480203060EB
:101DC000316841F4803105E020F4803030603168C2
:101DD00021F480213160606870B100F027FE054673
:101DE0003068810317D400F021FE401B6528F7D32B
:101DF000032002B0BDE8F08100F018FE054630680F
:101E0000810308D500F012FE401B6528F7D303209C
:101E100002B0BDE8F0812078810718D5B06810F0D5
:101E20000C0F07D0B06800F00C00082827D17068AC
:101E3000410224D43068810702D5E0680128ABD183
:101E40003168206921F0F80141EAC0013160217850
:101E5000080751D560698849E8B30122C1F8802E8E
:101E600000F0E4FD0546706F810745D400F0DEFD0B
:101E7000401B0228F7D9032002B0BDE8F081E068DA
:101E80007D49C0B101220A6000F0D0FD05463068EE
:101E9000810708D400F0CAFD401B0228F7D90320AF
:101EA00002B0BDE8F0813068216920F0F80040EA16
:101EB000C1003060CBE7086000F0B8FD054631682E
:101EC0008807C4D500F0B2FD401B0228F7D90320D3
:101ED00002B0BDE8F081C1F8800E00F0A7FD054614
:101EE000706F810708D500F0A1FD401B0228F7D9CB
:101EF000032002B0BDE8F0812078410767D5306C3F
:101F00000025C1000AD400950125316C41F08051B3
:101F10003164306C00F0805000900098574F386862
:101F2000C10513D4386840F48070386000F07EFD3D
:101F300080463868C10509D400F078FDA0EB0800A0
:101F40000228F6D9032002B0BDE8F081A06801287C
:101F500003D1306F40F001000FE00528306F06D14B
:101F600040F004003067306F40F0010005E04008A9
:101F700040003067306F20F00400306741F289374D
:101F8000A06878B100F052FD8046306F810719D407
:101F900000F04CFDA0EB0800B842F6D3032002B0DD
:101FA000BDE8F08100F042FD8046306F810709D521
:101FB00000F03CFDA0EB0800B842F6D3032002B0CD
:101FC000BDE8F0811DB1306C20F080503064A06914
:101FD00000284AD0B16801F00C0108293FF4DCAEBA
:101FE0000228254D30D10020286600F01FFD07464D
:101FF0003068810108D500F019FDC01B0228F7D90F
:10200000032002B0BDE8F081E069216A626A0843FA
:10201000A16A490840EA8210491E40EA0140E16A8B
:1020200040EA016070600120286600F0FFFC044671
:102030003068810119D400F0F9FC001B0228F7D99F
:10204000032002B0BDE8F0810020286600F0EEFC1D
:1020500004463068810108D500F0E8FC001B022826
:10206000F7D9032002B0BDE8F081002002B0BDE83E
:10207000F08100BF0038024000004742007000407D
:102080002DE9F04104000E4661D04F4DD5F8000413
:1020900000F00F00B04207D285F80064D5F80004C4
:1020A00000F00F00B04252D12068810712D54007DE
:1020B00003D5A96841F4E051A9602078010703D550
:1020C000A86840F46040A860A968A06821F0F00109
:1020D0000143A9602178C8072BD56068012802D187
:1020E00029688A0305E0022818BF032805D129685A
:1020F0008A0105D40120BDE8F08129688A0726D528
:10210000A968890840EA8100A86041F2893800F096
:102110008DFC0746A868616800F00C00B0EB810FE9
:1021200007D000F083FCC01B4045F3D30320BDE87B
:10213000F081D5F8000400F00F0086420AD285F83D
:102140000064D5F8000400F00F00B04202D0012076
:10215000BDE8F0812078410705D5AA68E06822F43F
:10216000E0520243AA602178080706D5A9682069D1
:1021700021F4604141EAC001A96000F02FF8AA688B
:102180001249134BC2F30312895CC8401860022045
:1021900000F0BAF90020BDE8F0810D4800687047F2
:1021A0000B480C4A006813680B49C3F38222895C10
:1021B000C84070470648074A006813680649C3F3D9
:1021C0004232895CC8407047003802404C350E08E6
:1021D000580100200838024054370E082DE95041BC
:1021E0000F4C606800F00C00082815D122682068A8
:1021F00020680C4EC0F3881802F03F020023A6FBB3
:10220000080100F019FC2168C1F30141491C490093
:10221000B0FBF1F0BDE850810248BDE8508100BF3D
:10222000043802400024F4002DE9F0438146B04D0B
:10223000012081B0144628820026AC616E82AE82F5
:1022400088462868C5F8509040F004002860C5F81A
:102250005480C0F3C00018B90A20A88253E0761C4D
:1022600005F11C0050F82610494538BF0B2EF6D357
:10227000AE65A04F3868C10305D5A8690028F9D11B
:102280000621A9823FE03868C1071AD501203860CD
:1022900017E03968C80744BF01213960786820F029
:1022A000FA00786000F0E0FC05EB8600C5F80890C5
:1022B00005F11C02016A52F826004944A1EB00090D
:1022C000761CC1451FD20B2E1DD8786820F44070B3
:1022D0007860F100786840F40070786041F00201A5
:1022E000786820F0F800786078680843786078684B
:1022F00040F4803078603868C103CAD5A8690028E6
:10230000F9D10621A9827B48416821F0FA01416098
:1023100000F0AAFCA8692968241AA88A6C8221F016
:102320000401296040B201B0BDE8F0832DE9F0421C
:1023300004466F4D6F4F022028820026AB616E82EB
:10234000AE82286840F001002860C0F3C00010B9D8
:102350000A20A8823EE03868C00305D5A869002895
:10236000F9D10620A88235E03868DFF88CC1C007B3
:1023700044BF01203860786820F440707860786845
:1023800040F400707860786840F00100786001E007
:102390000120386096421DDA64451BD2881990F8F6
:1023A00003E0807840EA0E2001EB060E9EF80190D3
:1023B00049EA0029885D6C6040EA0920361D44F82E
:1023C000040BB6B23868C003E2D5A8690028F9D179
:1023D0000620A8827868400840007860A8692968CB
:1023E00049081B1AA88A6B824900296040B2BDE8DF
:1023F000F082F2B4009B3E4D2E6846F002062E603D
:10240000014600243C4E04E00F5D1F55641C401C37
:10241000A4B294421CDAB0421AD20F5D1F55641C5C
:10242000401CA4B2944213DAB04211D20F5D1F5582
:10243000641C401CA4B294420ADAB04208D20F5D78
:102440001F55641C401CA4B2944201DAB042DBD395
:10245000286801B020F0020028600020F0BC70471E
:10246000F0B4234B244D1C68024644F002040020C3
:102470001C6002E012F8016B80198A4238BFAA4240
:102480003EBF12F8017BC0198A420ED2AA423EBF5B
:1024900012F8016B80198A4207D2AA423FBF12F894
:1024A000017BC0198A42AA42E4D324F002041C60D2
:1024B00080B2F0BC70470E4A136801000CBF0821BF
:1024C000002123F008031943116000230421118225
:1024D0005382938201280949C86840F00040C860CF
:1024E00003D0074A07480A600860002070470000D0
:1024F000B00100200C3C0240FFFF0F08043C0240EA
:1025000023016745AB89EFCD30B50F4D0F4B2A78CE
:1025100004464FF47A711868B1FBF2F281B0B0FB57
:10252000F2F0FFF71AF858B9102C09D20022214610
:102530004FF0FF30FEF7DBFFAC60002001B030BD94
:10254000012001B030BD00BF4C0100205801002027
:1025500000B581B00020009000222248416841F47B
:1025600080414160416801F48041009100990092EE
:10257000036843F080530360006800F080500090CF
:1025800000980320FEF7A6FF002200216FF00B0049
:10259000FEF7ADFF002200216FF00A00FEF7A7FF53
:1025A000002200216FF00900FEF7A1FF00220021A8
:1025B0006FF00400FEF79BFF002200216FF0030084
:1025C000FEF795FF002200216FF00100FEF78FFF5C
:1025D00001B05DF804EB002202214FF0FF30FEF75E
:1025E00086BF00BF4038024070B5040001D1012011
:1025F00070BD94F83D0028B9002184F83C102046B5
:10260000FFF7CFFA242084F83D00206801684908CC
:1026100049000160FFF7C4FD0146DFF8A8202368E8
:10262000A1FB0220C20C5A606068DFF89C3098421F
:1026300008D34FF4967010FB02F2DFF89060A2FB13
:1026400006656A0A2068521C026262689A4208D2D1
:102650005200B1FBF2F0C0F30B01042913D20420A5
:1026600011E0A06820B902EB4202B1FBF2F005E0F4
:1026700019204243B1FBF2F040F4804001050CBF49
:10268000012040F400402168C861E269206A2168A5
:1026900002430A60E0682269216802438A60A069F7
:1026A000626921680243CA6020212068026842F002
:1026B000010202600020206484F83D10206384F849
:1026C0003E0070BD06BD3786A1860100986E12835C
:1026D00010B5040001D1012010BD94F8390028B9CB
:1026E000002184F838102046FFF7A6FA242084F849
:1026F00039002068C16821F40051C160204600F013
:1027000017F82068016921F490410161206841694E
:1027100021F02A0141612068C16841F40051C16083
:102720000020E063202184F8391084F83A1010BDAD
:102730002DE9F047044622681169E06821F4405110
:1027400001431161D3688C48A168034020690B43A1
:1027500061690343E0690B430343D3605169A06996
:1027600021F44071014351618448E169B1F5004FA2
:1027700040F0A18082421CBF814882424DD1FFF7C8
:1027800019FD0546FFF716FD0646FFF713FD074640
:10279000FFF710FDDFF8ECA18046FFF70BFD642288
:1027A0006168DFF8E0E119235F435E434900B7FB4E
:1027B000F1F7A7FB0AA9B6FBF1F64FEA991702FB5E
:1027C0001766F60032365D43B5FBF1FCACFB0EE557
:1027D000DFF8B0C1A6FB0CC7BE097600AD0906F450
:1027E000F87606EB051603FB08F74343B3FBF1F05D
:1027F000B7FBF1F5634BA0FB0331890902FB1152D2
:10280000D20032325F4D2168A2FB0550800900F0F2
:10281000070086198E60BDE8F087FFF7C1FC05460A
:10282000FFF7BEFC0646FFF7BBFC0746FFF7B8FC08
:10283000DFF850A18046FFF7B3FC64226168DFF83F
:1028400044E119235F435E434900B7FBF1F7A7FB5F
:102850000AA9B6FBF1F64FEA991702FB1766F600D4
:1028600032365D43B5FBF1FCACFB0EE5DFF814C17D
:10287000A6FB0CC7BE097600AD0906F4F87606EB98
:10288000051603FB08F74343B3FBF1F0B7FBF1F583
:102890003C4BA0FB0331890902FB1152D2003232BA
:1028A000384D2168A2FB0550800900F00700861909
:1028B0008E60BDE8F08782421CBF314882420ED153
:1028C000FFF778FC0546FFF775FC0646FFF772FC3C
:1028D0000746FFF76FFC8046FFF76CFC0DE0FFF743
:1028E0005FFC0546FFF75CFC0646FFF759FC074610
:1028F000FFF756FC8046FFF753FCDFF888A06168BD
:10290000DFF880E0642219235F435E438900B7FB50
:10291000F1F7A7FB0AA9B6FBF1F64FEA991702FBFC
:10292000176636015D433236B5FBF1FCACFB0EE5B4
:10293000DFF850C0A6FB0CC7BE09AD0906F0F006D3
:1029400006EB051603FB08F74343B3FBF1F0B7FBB7
:10295000F1F50C4BA0FB0331890902FB1152120166
:102960003232084D2168A2FB0550800900F00F00AB
:1029700086198E60BDE8F087F369FFFF0010014003
:10298000001401403E0AD7A3F0B50F4683B00646B7
:10299000388A798A0FF288041EA5884237D0F868F1
:1029A000798A425CB869F98B4254F88BB98B401C28
:1029B000F88380B288420CD395E808506A4668468E
:1029C00082E8085001970296FA8BB9693B6A9847EA
:1029D00013E0F868798A425C0D2A10D194E8085017
:1029E000694681E8085001970296F88BB9693B6AFD
:1029F000421E92B26846984708B10020F883788A50
:102A0000B98A3A8A401C084082427882C7D103B012
:102A1000F0BD000018370E080000000000000000A4
:102A200018370E0800000000000000000148406850
:102A3000704700BF4C010020BBBBE1B1B2F5803F45
:102A400080F07E80022A1ED98C46B1FBF2F102FB97
:102A500011C31B0443EA1043B3FBF2FC02FB1C331B
:102A600080B240EA0343B3FBF2F002FB103240EACB
:102A70000C4000237047022A05D98446B0FBF2F0CF
:102A800002FB10C270474AB105D100F001024908AB
:102A90005FEA3000704700220023704700F00EB953
:102AA0000B000200002100207047904271EB030CE4
:102AB000F6D3B3F5803F2FD2F0B5B3FA83F7B1FA6E
:102AC00081F4A7F10F0E3D1B5340CEF1200602FA10
:102AD0000EF2F3415340B5F10F0746D80F3C2C449A
:102AE0004140C4F12006A040F1414140B1FBF3F662
:102AF00003FB1611A2FB0645001BA94102D2761E5C
:102B00008018594180EA010221FA0EF362FA0EF2AE
:102B100000215A403046F0BD30B4B1FBF3FC03FB5A
:102B20001C11A2FB0C45001BA94103D2ACF1010C06
:102B30008018594130BC02460B4660460021704760
:102B4000B2F1807F65D3F0B5B2FA82F7B1FA81F4C1
:102B5000C7F10F063D1B22FA06F307F1110EF241F1
:102B600020355A40B5F10F07B8D94140C4F12006CD
:102B7000A040F1414140B1FBF3FC03FB1C11A2FB5F
:102B80000C45001BA94103D2BCF1010C801859412E
:102B90000F2F12D30F3FC90341EA5041B1FBF3F6A7
:102BA00003FB1611A2FB0645D4EBC030A94102D2AB
:102BB000761E8018594146EACC3C07B34140C7F124
:102BC0002006B840F1414140B1FBF3F603FB16117A
:102BD000A2FB0645001BA94102D2761E801859416E
:102BE00080EA010221FA0EF3C7F1200462FA0EF224
:102BF0000CFA07F05A402CFA04F13043F0BD80EA99
:102C0000010221FA0EF3002162FA0EF260465A40E8
:102C1000F0BD8C46B1FBF2F102FB11C31B0243EA8B
:102C20001063B3FBF2FC02FB1C331B024CEA0020D6
:102C300043EA1063B3FBF2FC02FB1C331B024CEAB9
:102C4000002043EA1063B3FBF2FC02FB1C331B02BF
:102C50004CEA002043EA1063B3FBF2FC02FB1C3297
:102C60004CEA002000237047134801688A050FD5FD
:102C7000016821F400710160026842F400620260A0
:102C8000016821F400610160026842F40072026090
:102C900001684A050FD5016821F48061016002686E
:102CA00042F480520260016821F4805101600268A0
:102CB00042F4806202607047003C024070470000AE
:102CC00010B5044682B0A0680188ADF80010042257
:102CD000008AADF8020069466368586AFDF7F6FE9F
:102CE000A068028AC1686068406AFDF7EFFE02B022
:102CF00010BD78B5044681B0A0680D460188ADF8D6
:102D000000101646008A3018401CADF8020004225C
:102D10006368586A6946FDF7D9FE6068406A3246C2
:102D20002946FDF7D3FE6068406A012201A9FDF73C
:102D3000CDFEA068028AC1686068406AFDF7C6FEE1
:102D400002B070BD78B5044681B0A0680D46018818
:102D5000ADF800101646008A3018401CADF802008D
:102D600004226368586A6946FDF7B0FE6068406AED
:102D700032462946FDF7AAFE6068406A012201A991
:102D8000FDF7A4FEA068028AC1686068406AFDF78A
:102D90009DFE02B070BD00002DE9F0418846164648
:102DA00038F8042B1549054600F083F80027040085
:102DB00020D06368361F2BB1AC60B2B241462846C2
:102DC00098470746A068A8B1D5F804001AA1AC60DE
:102DD0000622406AFDF77AFEA4683BB2B2B24146D1
:102DE0002846A0476868406ABDE8F041022202A177
:102DF000FDF76CBEBDE8F0810D0A0000842F0E08BF
:102E000010B5062A134614D30A78232A04BF4A7938
:102E10003A2A0ED1A3F10A020C8992B2A24201DA37
:102E2000002010BD944204DB4FEA010204A100F02F
:102E300013F8012010BD0000235245533A3A000018
:102E40004C370E0806000000992D0E0818010020CE
:102E50000600000007340E082DE9F04381B0044657
:102E6000884691461E46002501E06D1CEDB205EB3B
:102E7000450008EB80073968B9B13A799642F4D336
:102E8000484600F04BF80028EFD1A760787910B9D8
:102E900038798144361ABB681BB1B2B24946204624
:102EA0009847384601B0BDE8F083002001B0BDE886
:102EB000F08310B408464142174CA1FB0443990922
:102EC0004FF6FF731CD00488491E9C4220D09442C8
:102ED0001FD030F8144F9C421AD0944219D030F8C9
:102EE000144F9C4214D0944213D030F8144F9C429B
:102EF0000ED094420DD014300029E4D100E01430FB
:102F000030B10188994203D09142F8D110BC70478A
:102F1000002010BC70470000CDCCCCCC03000020BA
:102F200013F0030F09D0521E22BF13F8010B11F842
:102F300001CBB0EB0C00F3D0704711F0030F14D1AC
:102F4000121F22BF53F8040B51F804CB6045F7D091
:102F5000121D0AD200BA9CFA8CFCB0EB0C0038BFF0
:102F60006FF0000088BF01207047521E22BF13F887
:102F7000010B11F801CBB0EB0C00F6D0521C08BFCE
:102F8000104670473143000000000000C12C0E08BD
:102F90009000002004000000344300000000000006
:102FA000C12C0E088C0000203800000032430000C5
:102FB00000000000C12C0E088C000020040000005E
:102FC0003543000000000000C12C0E086C000020FA
:102FD0001C0000003343000000000000C12C0E085C
:102FE0004C000020200000003643000000000000DC
:102FF000C12C0E08C40000201C0000003743000054
:1030000000000000C12C0E080C0100200900000087
:10301000FA43000089010E08F32C0E088C000020F2
:1030200038000000F8430000E3070E08F32C0E08F8
:103030008C00002004000000FC43000073080E0810
:10304000F32C0E088C00002038000000F94300002B
:1030500059080E08F32C0E084C0000202000000038
:10306000FB43000041080E08F32C0E084800002026
:1030700004000000FD4300001B080E08F32C0E089E
:103080008800002001000000C14400007D080E08F7
:10309000452D0E088C00002038000000C2440000BE
:1030A000A1080E08452D0E088C00002038000000F5
:1030B000C3440000AD060E08452D0E088C0000200C
:1030C00038000000C4440000C3070E08452D0E0858
:1030D0008C00002038000000FFFF0000000000000E
:1030E000000000000000000000000000FEE710B536
:1030F00000F09CF846490A6DD068C0F3C01068B96A
:10310000888F4B8F984209D0D06840F08000D06003
:10311000404AD068036843F0200303603E4AB2F897
:10312000A60018B1401EA2F8A60008E0394B586965
:103130000468E30703D4046844F001040460B1F8B0
:10314000400020B1B1F84000431EA1F84030106D9E
:10315000C0F3C00010B9D06F401CD06700F090F8E9
:10316000BDE81040FEF724BA2C4800680169490800
:1031700049000161FDF7EAB829480068016921F0BA
:10318000020101612448D0F88410491CC0F8841061
:1031900070471F490A6D1068C0F3401078B110687D
:1031A00020F0200010601F4A136808698A8A83543F
:1031B0008A8A088B521C8A8202408A827047D068B1
:1031C000C0F3C01000281EBF1068C0F3C010002854
:1031D00016D0888F4B8F98420BD04A6B114B105CE6
:1031E00018608A8FB1F84200521C8A8702408A8791
:1031F0007047D06820F08000D0600522A1F8402000
:103200007047094800680169490849000161704731
:103210005C010020EC0000203C0000202801002080
:103220002C010020044400403401002013480178A0
:1032300041F0010101704178491C4170C9B20A296D
:103240001BD10021417081780278491C817042F0C5
:103250000202C9B20A2902700FD10021817042F026
:103260000402C1780270491CC170C9B20A2904D194
:10327000002142F00802C17002707047540F002014
:103280000248416802788A18426070474C01002069
:10329000660000000000000095330E0800000020CA
:1032A00010000000670000000000000095330E08C9
:1032B0001000002014000000650000000000000065
:1032C00095330E08300000200B000000680000005D
:1032D0000000000095330E08B00100201800000027
:1032E000C900000021180E08C7330E08B0010020E5
:1032F000180000002F01000095170E08C7330E08B4
:10330000B0010020180000002E01000003180E0874
:10331000C7330E08B0010020180000003001000083
:10332000C9170E08C7330E08000000000000000097
:10333000320100002F180E08C7330E0810000020BD
:103340001400000031010000D1180E08C7330E0828
:1033500010000020140000002D010000C3180E080A
:10336000C7330E08100000201400000033010000D5
:1033700045180E08C7330E0800000020100000009A
:10338000000000000000000000000000000000003D
:103390000000000010B5044682B0A0680188ADF8B6
:1033A00000100422008AADF8020069466368586A7A
:1033B000FDF78CFBA068028AC1686068406AFDF76F
:1033C00085FB02B010BD18B5044681B0A068018825
:1033D000ADF800100422008A801CADF80200694696
:1033E0006368586AFDF772FB6068406A022201A9AF
:1033F000FDF76CFBA068028AC1686068406AFDF74F
:1034000065FB02B010BD2DE9F043884685B0164635
:1034100038F8042B17490546FFF74BFD0027040039
:1034200025D0142221466846FDF7E0FAC5F808D0F9
:10343000361F636823B1B2B2414628469847074613
:10344000A068A0B16868DFF83090406A062209F1F0
:103450000401FDF73BFBA4683BB2B2B241462846EB
:10346000A0476868406A01224946FDF72FFB05B076
:10347000BDE8F08390320E0824000020F0B402462C
:10348000106895681318506803EB5004C0071CD5EA
:103490004D441AE013F8017B05F8017B491EF9D170
:1034A00098B113F8011BC6F38106032E08BF13F869
:1034B000016B01EB06214942801C294405D011F81B
:1034C000016B05F8016B401EF9D1A3420ED013F831
:1034D000016B16F0030104BF13F8011BC91C30096E
:1034E0000F28DBD113F8010B0F30D7E7F0BC02F146
:1034F0000C0070471149124AD1F8800040F4700066
:10350000C1F880000023106840F001001060936053
:10351000D2F800C00B480C4B00EA0C0CC2F800C0FB
:1035200053600020D2F800C02CF4802CC2F800C0F8
:10353000D0604FF000620A607047000008ED00E0C4
:1035400000380240FFFFF6FE1030002400000000AB
:10355000000000000102030406070809433A5C5515
:10356000736572735C4D5C736F757263655C7265D5
:10357000706F735C73657269616C706F72745C7389
:10358000657269616C706F72745F646F746E65747C
:103590005C4175746F5F53616D706C65725F4669F5
:1035A000726D776172652D5C5372635C6932632E54
:1035B00063000000433A5C55736572735C4D5C7345
:1035C0006F757263655C7265706F735C7365726949
:1035D000616C706F72745C73657269616C706F722C
:1035E000745F646F746E65745C4175746F5F536172
:1035F0006D706C65725F4669726D776172652D5C86
:103600005372635C74696D2E63000000433A5C552D
:10361000736572735C4D5C736F757263655C726524
:10362000706F735C73657269616C706F72745C73D8
:10363000657269616C706F72745F646F746E6574CB
:103640005C4175746F5F53616D706C65725F466944
:10365000726D776172652D5C5372635C7573617214
:10366000742E630010B5074979441831064C7C4428
:10367000163404E00A68081D114488470146A14237
:10368000F8D110BD2C000000480000004EF6885113
:10369000CEF20001086840F470000860BFF34F8F5D
:1036A000BFF36F8F4FF00070E1EE100A704700001B
:1036B000E3D3FFFF500D00000C02002000000000CB
:1036C000BDFDFFFFF001000012020000000000201D
:1036D00000F00DF8002801D0FFF7C4FFAFF3008021
:1036E0000020AFF30080FDF7EDFD00F002F80120AF
:1036F000704700F001B800000746384600F002F8B5
:10370000FBE7000080B5AFF30080024A11001820EB
:10371000ABBEFBE7260002007852784576656E74F2
:10372000456E644C696E650001488047014800475A
:10373000F5340E0839370E08AFF30080FFF7A6FF07
:10374000FFF7C6FF434B5F54000000002352455172
:103750003A3A000000000000010203045573617250
:1037600074325400785278540000000054780000FD
:10377000FFF7FEBFFFF7FEBFFFF7FEBFFFF7FEBF7D
:10378000FFF7FEBFFFF7FEBFFFF7FEBFFFF7FEBF6D
:10379000FFF7FEBFFFF7FEBFFFF7FEBFFFF7FEBF5D
:1037A000FFF7FEBFFFF7FEBFFFF7FEBFFFF7FEBF4D
:1037B000FFF7FEBFFFF7FEBFFFF7FEBFFFF7FEBF3D
:1037C000FFF7FEBFFFF7FEBFFFF7FEBFFFF7FEBF2D
:1037D000FFF7FEBFFFF7FEBFFFF7FEBFFFF7FEBF1D
:1037E000FFF7FEBFFFF7FEBFFFF7FEBFFFF7FEBF0D
:1037F000FFF7FEBFFFF7FEBFFFF7FEBFFFF7FEBFFD
:10380000FFF7FEBFFFF7FEBFFFF7FEBFFFF7FEBFEC
:10381000FFF7FEBFFFF7FEBFFFF7FEBFFFF7FEBFDC
:10382000FFF7FEBFFFF7FEBFFFF7FEBFFFF7FEBFCC
:10383000FFF7FEBFFFF7FEBFFFF7FEBFFFF7FEBFBC
:10384000FFF7FEBFFFF7FEBFFFF7FEBFFFF7FEBFAC
:10385000FFF7FEBFFFF7FEBFFFF7FEBFFFF7FEBF9C
:10386000FFF7FEBFFFF7FEBFFFF7FEBFFFF7FEBF8C
:10387000FFF7FEBFFFF7FEBFFFF7FEBFFFF7FEBF7C
:10388000FFF7FEBFFFF7FEBFFFF7FEBFFFF7FEBF6C
:10389000FFF7FEBFFFF7FEBFFFF7FEBFFFF7FEBF5C
:1038A000FFF7FEBFFFF7FEBFFFF7FEBFFFF7FEBF4C
:1038B000FFF7FEBFF20100011001080040041004F0
:1038C000000E08FFFF0F08100100000D05C01623B1
:1038D0005253424C3A0000626F6F743A312E302ED0
:1038E00030000044370E0840C008803F00002041EF
:1038F0000000C8420CA0010A0064292001BD010596
:103900000FF00902A037A04C00204B470020000117
:10391000F3037A4416F00128FF1F00011003100082
:1039200002401404131004081104131008081104B1
:1039300013100C081104634657DA21F03251F017C6
:1039400000540E13000104110836041A100140003F
:103950000C04121004221414111C124004500244CE
:103960000140019B221008140224F4005C20126420
:1039700004435C01E2430C0C0812FF2910040C06FE
:103980000020FF035A462E44526C28A70C020E2139
:1039900022540200003B1D6822448CF10C0145BCFE
:1039A00012800426C0C4120104120204120404127C
:0D39B0000604120804120A04B60CE06101BE
:04000005080E373971
:00000001FF
